:100000000C9434000C943E000C943E000C943E0082
:100010000C943E000C943E000C943E000C943E0068
:100020000C943E000C943E000C943E000C943E0058
:100030000C943E000C943E000C943E000C943E0048
:100040000C943E000C943E000C943E000C943E0038
:100050000C943E000C943E000C943E000C943E0028
:100060000C943E000C943E0011241FBECFEFD8E04C
:10007000DEBFCDBF0E9455000C9473000C940000AD
:10008000CF93DF93CDB7DEB784E290E023E0FC01AD
:1000900020830000DF91CF910895CF93DF93CDB7F8
:1000A000DEB781E0DF91CF9108950F931F93CF9337
:1000B000DF93CDB7DEB784E290E021E0FC0120833E
:1000C0000E94400004E210E00E944D00F80180838D
:1000D00085E290E025E230E0F901308121E023273C
:0A00E000FC012083F5CFF894FFCF58
:00000001FF
