:100000000C94E80A0C94050B0C94050B0C94050B4E
:100010000C94050B0C94050B0C94050B0C94050B20
:100020000C94050B0C94050B0C94050B0C94050B10
:100030000C94050B0C94800D0C94050B0C94050B83
:100040000C94050B0C94050B0C94E9110C94050B06
:100050000C9428120C94050B0C94050B0C94050BB6
:100060000C94050B0C94050B1A3300002436000089
:100070005D390000C33C00006340000037440000CD
:1000800045480000924C00001F510000F25500004E
:100090000E5B00007960000035660000496C0000CE
:1000A000BA72000086790000C68000006E880000E9
:1000B0008A900000249900003EA20000E4AB0000FA
:1000C0001CB60000F2C000006ACC000092D800000C
:1000D00074E500000CF300008C010100DC1001004D
:1000E00014210100483201007C440100C85701007E
:1000F000386C0100E4810100D498010024B10100B2
:10010000E8CA010018E6010018030200B821020045
:100110002842020090640200F888020090AF0200BA
:1001200070D80200C8030300A8310300486203002E
:10013000D095030030CC0300300604007043040067
:100140005084040020C90400F0110500205F050060
:10015000E0B00500900706005063060090C406005A
:10016000A02B070060980700600C0800E0860800DC
:10017000A008090040920900E0230A0040BE0A00DE
:10018000C0610B00200F0C00A0C60C0020890D00E0
:1001900040570E00C0300F00C0181000C00D1100F5
:1001A0004011120080241300C0471400807C150009
:1001B00080C31600401E1800408D190040121B001D
:1001C00080AE1C0080611E0080312000801B220058
:1001D00000010301060109010C010F0112011501C3
:1001E00019011C011F012201250128012B012E01EB
:1001F0003101340137013B013E0141014401470116
:100200004A014D0150015301560159015B015E0144
:100210006101640167016A016D017001720175017C
:1002200078017B017D0180018301860188018B01BA
:100230008D0190019301950198019A019D019F0103
:10024000A201A401A601A901AB01AD01B001B20157
:10025000B401B601B901BB01BD01BF01C101C301B8
:10026000C501C701C901CB01CD01CF01D001D20128
:10027000D401D601D701D901DB01DC01DE01DF01A8
:10028000E101E201E401E501E601E801E901EA0139
:10029000EC01ED01EE01EF01F001F101F201F301DA
:1002A000F401F501F601F701F701F801F901F9018F
:1002B000FA01FB01FB01FC01FC01FD01FD01FD0157
:1002C000FE01FE01FE01FF01FF01FF01FF01FF0131
:1002D000FF01FF01FF01FF01FF01FF01FE01FE0120
:1002E000FE01FD01FD01FD01FC01FC01FB01FB0123
:1002F000FA01F901F901F801F701F701F601F50139
:10030000F401F301F201F101F001EF01EE01ED0161
:10031000EC01EA01E901E801E601E501E401E2019D
:10032000E101DF01DE01DC01DB01D901D701D601EA
:10033000D401D201D001CF01CD01CB01C901C70148
:10034000C501C301C101BF01BD01BB01B901B601B6
:10035000B401B201B001AD01AB01A901A601A40134
:10036000A2019F019D019A019801950193019001BD
:100370008D018B0188018601830180017D017B0154
:1003800078017501720170016D016A0167016401F4
:1003900061015E015B0159015601530150014D019C
:1003A0004A014701440141013E013B01370134014B
:1003B00031012E012B012801250122011F011C0101
:1003C0001901150112010F010C01090106010301B8
:1003D0000001FC00F900F600F300F000ED00EA0077
:1003E000E600E300E000DD00DA00D700D400D10031
:1003F000CE00CB00C800C400C100BE00BB00B800E6
:10040000B500B200AF00AC00A900A600A400A10096
:100410009E009B009800950092008F008D008A003E
:100420008700840082007F007C00790077007400E0
:1004300072006F006C006A00670065006200600077
:100440005D005B0059005600540052004F004D0003
:100450004B00490046004400420040003E003C0082
:100460003A00380036003400320030002F002D00F2
:100470002B00290028002600240023002100200052
:100480001E001D001B001A001900170016001500A1
:1004900013001200110010000F000E000D000C00E0
:1004A0000B000A000900080008000700060006000B
:1004B0000500040004000300030002000200020023
:1004C0000100010001000000000000000000000029
:1004D000000000000000000000000000010001001A
:1004E00001000200020002000300030004000400F7
:1004F00005000600060007000800080009000A00C1
:100500000B000C000D000E000F0010001100120077
:10051000130015001600170019001A001B001D001B
:100520001E002000210023002400260028002900AE
:100530002B002D002F003000320034003600380030
:100540003A003C003E0040004200440046004900A2
:100550004B004D004F0052005400560059005B0004
:100560005D0060006200650067006A006C006F005B
:1005700072007400770079007C007F0082008400A4
:1005800087008A008D008F009200950098009B00E4
:100590009E00A100A400A600A900AC00AF00B2001C
:1005A000B500B800BB00BE00C100C400C800CB004D
:1005B000CE00D100D400D700DA00DD00E000E30077
:1005C000E600EA00ED00F000F300F600F900FC00A0
:1005D000FF00010103010501070109010B010D01E4
:1005E0000F01110113011501170119011B011D0153
:1005F0001F0121012301250128012A012C012E01BF
:10060000300133013501370139013C013E01400120
:1006100042014501470149014C014E01500152017F
:100620005501570159015B015D015F0162016401E0
:10063000660168016A016C016E017001720174014A
:10064000760178017A017C017E017F0181018301BD
:100650008501870189018B018D018F019001920134
:100660009401960198019A019C019E01A001A301A9
:10067000A501A701A901AB01AE01B001B201B4010E
:10068000B701B901BC01BE01C101C301C501C80167
:10069000CA01CD01CF01D201D401D701D901DC01BA
:1006A000DE01E001E201E501E701E901EB01ED0115
:1006B000EF01F101F201F401F501F701F801F9018F
:1006C000FA01FB01FC01FD01FD01FE01FE01FE013D
:1006D000FF01FE01FE01FE01FD01FD01FC01FB0128
:1006E000FA01F901F801F701F501F401F201F10154
:1006F000EF01ED01EB01E901E701E501E201E001B4
:10070000DE01DC01D901D701D401D201CF01CD0135
:10071000CA01C801C501C301C101BE01BC01B901C3
:10072000B701B401B201B001AE01AB01A901A7014B
:10073000A501A301A0019E019C019A0198019601C7
:100740009401920190018F018D018B018901870134
:100750008501830181017F017E017C017A0178019D
:1007600076017401720170016E016C016A01680109
:100770006601640162015F015D015B01590157017E
:100780005501520150014E014C01490147014501FB
:10079000420140013E013C0139013701350133017D
:1007A00030012E012C012A012801250123012101FC
:1007B0001F011D011B011901170115011301110171
:1007C0000F010D010B0109010701050103010101E1
:1007D000FF00FD00FB00F900F700F500F300F10059
:1007E000EF00ED00EB00E900E700E500E300E100C9
:1007F000DF00DD00DB00D900D600D400D200D0003D
:10080000CE00CB00C900C700C500C200C000BE00BA
:10081000BC00B900B700B500B200B000AE00AC003B
:10082000A900A700A500A300A1009F009C009A00BA
:10083000980096009400920090008E008C008A0030
:10084000880086008400820080007F007D007B009D
:10085000790077007500730071006F006E006C0006
:100860006A00680066006400620060005E005B0071
:10087000590057005500530050004E004C004A00EC
:1008800047004500420040003D003B003900360073
:10089000340031002F002C002A0027002500220000
:1008A00020001E001C001900170015001300110085
:1008B0000F000D000C000A000900070006000500EB
:1008C000040003000200010001000000000000001D
:1008D0000000000000000000010001000200030011
:1008E000040005000600070009000A000C000D00C6
:1008F0000F00110013001500170019001C001E0046
:1009000020002200250027002A002C002F003100A3
:100910003400360039003B003D00400042004500F5
:1009200047004A004C004E0050005300550057004D
:1009300059005B005E0060006200640066006800B1
:100940006A006C006E006F00710073007500770024
:1009500079007B007D007F0080008200840086009B
:1009600088008A008C008E0090009200940096000F
:1009700098009A009C009F00A100A300A500A7007A
:10098000A900AC00AE00B000B200B500B700B900DD
:10099000BC00BE00C000C200C500C700C900CB003B
:1009A000CE00D000D200D400D600D900DB00DD009C
:1009B000DF00E100E300E500E700E900EB00ED0007
:1009C000EF00F100F300F500F700F900FB00FD0077
:1009D000FF00FF00FF00FF00FF00FF00FF00FE0020
:1009E000FE00FE00FD00FD00FC00FC00FB00FA0024
:1009F000F900F800F700F500F400F300F100EF0053
:100A0000EE00EC00EA00E800E700E500E300E100AA
:100A1000DF00DD00DB00DA00D800D600D500D3000F
:100A2000D100D000CF00CE00CD00CC00CB00CA005A
:100A3000C900C900C800C800C700C700C700C70078
:100A4000C700C700C700C700C700C700C700C7006E
:100A5000C700C700C700C700C700C600C600C60061
:100A6000C500C400C400C300C200C100C000BE0075
:100A7000BD00BC00BA00B800B700B500B300B100BB
:100A8000AF00AD00AB00A900A700A500A300A10026
:100A90009F009D009B009A0098009600950094008E
:100AA00093009200910090008F008F008E008E00C6
:100AB0008E008D008D008D008E008E008E008E00C9
:100AC0008F008F008F0090009000900090009000A9
:100AD000900090009000900090008F008E008E009B
:100AE0008D008C008A0089008800860084008200C6
:100AF00080007E007C007A00770075007200700034
:100B00006D006B0068006600640061005F005D00BE
:100B10005B005A0058005600550054005300520024
:100B20005200510051005100510051005200530039
:100B30005300540055005600570059005A005B00FE
:100B40005C005D005E005F006000600061006100AD
:100B500061006100610060005F005E005D005B009D
:100B600059005700540052004E004B00480044000A
:100B700040003C00380033002F002A0026002200ED
:100B80001D001900150011000E000A0008000500E4
:100B9000030001000000000000000000010003004D
:100BA000060009000D00110017001D0024002B0095
:100BB00033003C00460050005B00660072007F007E
:100BC0008C009900A700B500C400D200E100F0003D
:100BD000FF000E011D012C013A0149015701650179
:100BE00072017F018C019801A301AE01B801C2011D
:100BF000CB01D301DA01E101E701ED01F101F501DA
:100C0000F801FB01FD01FE01FF01FE01FE01FD01F6
:100C1000FB01F901F601F401F001ED01E901E50143
:100C2000E101DC01D801D401CF01CB01C601C20131
:100C3000BE01BA01B601B301B001AC01AA01A7011E
:100C4000A501A301A101A0019F019E019D019D019C
:100C50009D019D019D019E019E019F01A001A10199
:100C6000A201A301A401A501A701A801A901AA014C
:100C7000AB01AB01AC01AD01AD01AD01AD01AD0109
:100C8000AC01AC01AB01AA01A901A801A601A40114
:100C9000A301A1019F019D019A0198019601930171
:100CA00091018E018C0189018701840182018001FB
:100CB0007E017C017A01780176017501740172016F
:100CC0007101700170016F016E016E016E016E01A4
:100CD0006E016E016E016E016E016E016F016F019A
:100CE0006F0170017001700170017101710171017A
:100CF0007001700170016F016F016E016D016C0177
:100D00006B016A01690168016601640163016101A7
:100D10005F015D015B01590157015501530151010B
:100D20004F014D014B014901470146014401420178
:100D3000410140013E013D013C013B013A013A01C4
:100D400039013801380138013701370137013701DE
:100D500037013701370137013701370137013701D3
:100D600037013701370137013701360136013501C7
:100D70003501340133013201310130012F012E01DF
:100D80002D012B0129012801260124012301210124
:100D90001F011D011B011901170116011401120188
:100DA00010010F010D010B010A01090107010601E4
:100DB0000501040103010201020101010101000119
:100DC00000010001FF00FF00FF00FF00FF00FF0027
:100DD000FF00FF00FF00FF00FF00FF00FF00000119
:100DE00000010001010101010201020103010401EE
:100DF00005010601070109010A010B010D010E01A0
:100E00001001120114011501170119011B011D0127
:100E10001F012101230124012601280129012B01A1
:100E20002C012E012F013001310132013301340137
:100E300035013501360136013701370137013701F8
:100E400037013701370137013701370137013701E2
:100E500037013701370137013701380138013901CE
:100E600039013A013A013B013C013D013E0140019B
:100E70004101430144014601480149014B014D0133
:100E80004F01510153015501570159015B015D01AA
:100E90005F016101630165016601680169016A0121
:100EA0006B016D016D016E016F016F0170017001C9
:100EB00070017101710171017001700170017001A7
:100EC0006F016F016F016E016E016E016E016E01A7
:100ED0006D016E016E016E016E016F017001700196
:100EE0007101720174017501760178017A017C014A
:100EF0007E01800182018401870189018C018E01BC
:100F000091019301960198019A019D019F01A10110
:100F1000A301A501A601A801A901AA01AB01AC0189
:100F2000AD01AD01AD01AD01AD01AD01AC01AC0153
:100F3000AB01AA01A901A801A701A601A501A3016E
:100F4000A201A101A0019F019E019E019D019D01A1
:100F50009D019D019D019E019F01A001A101A30191
:100F6000A501A701AA01AD01B001B301B701BA0102
:100F7000BE01C201C701CB01CF01D401D801DD01FF
:100F8000E101E501E901ED01F001F401F601F901EA
:100F9000FB01FD01FE01FE01FF01FE01FD01FB0160
:100FA000F801F501F101ED01E701E101DA01D301F9
:100FB000CB01C201B801AE01A30198018C017F01F0
:100FC00072016501570149013A012C011D010E0111
:100FD000FF00F000E100D200C400B500A7009900B6
:100FE0008C007F00720066005B00500046003C00F1
:100FF00033002B0024001D00170011000D00090014
:1010000006000300010000000000000000000100D5
:101010000300050008000A000E0011001500190069
:101020001D00210026002A002F00330037003C005D
:101030004000440047004B004E0051005400570050
:1010400059005B005D005E005F00600061006100B0
:10105000610061006100600060005F005E005D0093
:101060005C005B00590058005700560055005400C2
:1010700053005200520051005100510051005100E4
:1010800051005200530054005500560058005900BA
:101090005B005D005F0061006400660068006B003B
:1010A0006D0070007200750077007A007C007E0091
:1010B0008000820084008600880089008A008C00FD
:1010C0008D008E008E008F009000900090009000A8
:1010D0009100900090009000900090008F008F0091
:1010E0008F008E008E008E008E008D008D008D0092
:1010F0008E008E008E008F008F0090009100910076
:101100009300940095009600980099009B009D0024
:101110009F00A100A300A500A700A900AB00AD009F
:10112000AF00B100B300B500B600B800BA00BB0014
:10113000BD00BE00C000C100C200C300C400C400A6
:10114000C500C500C600C600C700C700C700C7006D
:10115000C700C700C700C700C700C700C700C70057
:10116000C700C700C700C700C700C800C800C90043
:10117000C900CA00CB00CC00CD00CE00CF00D0000B
:10118000D200D300D500D600D800DA00DB00DD00A5
:10119000DF00E100E300E500E700E900EA00EC0021
:1011A000EE00F000F100F300F400F500F700F800A5
:1011B000F900FA00FB00FC00FC00FD00FD00FE0051
:1011C000FE00FE00FF00FF00FF00FF00FF00FF0029
:1011D000FF000C011A012701340142014E015B019D
:1011E000670173017F018A0195019F01A901B30184
:1011F000BC01C401CC01D301DA01E001E501EA013F
:10120000EF01F301F601F901FB01FC01FE01FE0112
:10121000FF01FE01FE01FD01FB01FA01F801F601EB
:10122000F301F001EE01EB01E801E501E201DF016C
:10123000DC01D901D601D301D001CE01CB01C90116
:10124000C701C501C401C201C101C001C001C00183
:10125000BF01C001C001C001C101C201C301C5017C
:10126000C601C801C901CB01CD01CF01D101D30114
:10127000D501D701D901DB01DD01DF01E001E20188
:10128000E301E501E601E701E801E801E901E9011F
:10129000E901E901E901E801E801E701E601E50109
:1012A000E401E201E101DF01DE01DC01DB01D90142
:1012B000D701D501D401D201D001CF01CE01CC019B
:1012C000CB01CA01C901C801C701C701C601C601D6
:1012D000C601C601C601C701C701C801C901CA01CB
:1012E000CB01CC01CE01CF01D001D201D401D50177
:1012F000D701D901DB01DC01DE01DF01E101E201FF
:10130000E401E501E601E701E801E801E901E9019D
:10131000E901E901E901E801E801E701E601E50188
:10132000E301E201E001DF01DD01DB01D901D701C9
:10133000D501D301D101CF01CD01CB01C901C80134
:10134000C601C501C301C201C101C001C001C00184
:10135000BF01C001C001C001C101C201C401C5017A
:10136000C701C901CB01CE01D001D301D601D901FA
:10137000DC01DF01E201E501E801EB01EE01F00132
:10138000F301F601F801FA01FB01FD01FE01FE0186
:10139000FF01FE01FE01FC01FB01F901F601F30171
:1013A000EF01EA01E501E001DA01D301CC01C4015A
:1013B000BC01B301A9019F0195018A017F0173015D
:1013C00067015B014E014201340127011A010C0142
:1013D000FF00F200E400D700CA00BC00B000A30088
:1013E00097008B007F00740069005F0055004B0080
:1013F00042003A0032002B0024001E0019001400A5
:101400000F000B00080005000300020000000000B0
:1014100000000000000001000300040006000800B6
:101420000B000E0010001300160019001C001F0016
:101430002200250028002B002E003000330035004C
:10144000370039003A003C003D003E003E003E00BF
:101450003F003E003E003E003D003C003B003900A6
:10146000380036003500330031002F002D002B00EE
:10147000290027002500230021001F001E001C005A
:101480001B001900180017001600160015001500A3
:101490001500150015001600160017001800190099
:1014A0001A001C001D001F00200022002300250040
:1014B000270029002A002C002E002F0030003200C7
:1014C000330034003500360037003700380038006C
:1014D0003800380038003700370036003500340057
:1014E0003300320030002F002E002C002A0029008B
:1014F000270025002300220020001F001D001C00E3
:101500001A00190018001700160016001500150023
:101510001500150015001600160017001800190018
:101520001B001C001E001F002100230025002700B7
:1015300029002B002D002F0031003300350036002C
:10154000380039003B003C003D003E003E003E00BC
:101550003F003E003E003E003D003C003A003900A6
:1015600037003500330030002E002B002800250006
:1015700022001F001C0019001600130010000E00AE
:101580000B0008000600040003000100000000003A
:1015900000000000000002000300050008000B002E
:1015A0000F00140019001E0024002B0032003A0026
:1015B00042004B0055005F00690074007F008B0003
:1015C0009700A300B000BC00CA00D700E400F200FE
:1015D00011241FBECFEFD8E0DEBFCDBF11E0A0E0E9
:1015E000B1E0E4EBF5E202C005900D92A431B10741
:1015F000D9F723E0A4E1B1E001C01D92AC36B207F7
:10160000E1F70E9466120C94D8120C94000010921C
:101610002C011092140110922B0110922A01A6E0C5
:10162000B1E0ED91FC911197308181E090E0AC0147
:1016300012960C9002C0440F551F0A94E2F7242F13
:10164000209523232083A3E0B1E0ED91FC91119735
:101650003081AC0112960C9002C0440F551F0A94C1
:10166000E2F7242F209523232083E0E0F1E0A081FE
:10167000B1813C91AC01028002C0440F551F0A9415
:10168000E2F7242F209523232C93A081B1812C9164
:10169000028002C0880F991F0A94E2F7822B8C9374
:1016A000ECE7F0E080818160808380818D7F8083A2
:1016B00080818B7F80838081877F80830895E6E0AF
:1016C000F1E0A081B1814C9181E090E09C01028029
:1016D00002C0220F331F0A94E2F7242B2C93A0811F
:1016E000B1812C91028002C0880F991F0A94E2F701
:1016F000809582238C930895E3E0F1E0A081B1818D
:101700004C9181E090E09C01028002C0220F331FC7
:101710000A94E2F7242B2C93A081B1812C910280B2
:1017200002C0880F991F0A94E2F7809582238C9358
:1017300008950F931F93CF93DF93CCE7D0E01882E7
:101740008881806488830AE710E0D8018C918460E6
:101750008C938C9182608C938C9181608C938C9112
:1017600080688C938FE080937E008AE0EFE1F1E067
:10177000DF011D928A95E9F74AE050E06FE070E0E2
:1017800085E191E00E94D1123C9A3D9A579A1092BD
:101790002C011092140110922B0110922A01A6E044
:1017A000B1E0ED91FC911197308181E090E0AC01C6
:1017B00012960C9002C0440F551F0A94E2F7242F92
:1017C000209523232083A3E0B1E0ED91FC911197B4
:1017D0003081AC0112960C9002C0440F551F0A9440
:1017E000E2F7242F209523232083E0E0F1E0A0817D
:1017F000B1813C91AC01028002C0440F551F0A9494
:10180000E2F7242F209523232C93A081B1812C91E2
:10181000028002C0880F991F0A94E2F7822B8C93F2
:1018200088818160888388818D7F888388818B7F90
:1018300088838881877F888310922901F8018081BD
:1018400080648083DF91CF911F910F9108958091E3
:101850007A0086FD3BC090912901292F30E040910C
:10186000780050917900220F331FF901EB5EFE4F93
:1018700051834083F901E15EFE4F0190F081E02D3C
:10188000309721F0CA010995909129019F5F953009
:10189000F0F49093290180917C00807F80937C00FC
:1018A00090917C00809129018370892B80937C002A
:1018B000809129018430B8F481FF0CC081E08093CD
:1018C0002C0180917A00806480937A0008951092B0
:1018D0002901E1CF90E0029695958795959587959A
:1018E00080932B01EECF0E94070BEBCF9091140158
:1018F00080912C01981721F1E0910601F0910701E8
:10190000408181E090E09C010090080102C0220F1C
:10191000331F0A94E2F7242B2083E0910601F09113
:10192000070120810090080102C0880F991F0A94C6
:10193000E2F780958223808380912C0180931401AB
:1019400090912A0180912B01981721F1E0910301D8
:10195000F0910401408181E090E09C01009005013C
:1019600002C0220F331F0A94E2F7242B2083E09158
:101970000301F091040120810090050102C0880F4D
:10198000991F0A94E2F780958223808380912B012E
:1019900080932A010895209147013091480128172A
:1019A000390749F010924301909348018093470111
:1019B00081E0809343010895969587952091450194
:1019C000309146012817390749F01092440190934D
:1019D00046018093450181E0809344010895209160
:1019E0005A0130915B012817390749F010924201E2
:1019F00090935B0180935A0181E0809342010895A6
:101A00009695879520912E0130912F01281739073F
:101A100049F01092410190932F0180932E0181E0B3
:101A20008093410108950895219A559AE9E4F1E0DF
:101A300082E38083A0E3B1E08C93118211961C9223
:101A400011978FEF828312968C93129713821396BD
:101A50001C92139713861486158616861B961D9264
:101A60001D921D921C921E97148214961C9214971C
:101A700080E091E016969C938E93159716821582BE
:101A800040E050E061E070E04783508761877287F3
:101A900017964D935D936D937C931A978DE391E028
:101AA00050969C938E931F9786E591E0908B878745
:101AB000EFE1F1E08BEC9CE0918380838FEE9CE082
:101AC000938382838CED9CE09583848380E09DE00A
:101AD0009783868310924101109244011092420133
:101AE0001092430182EA80938000E1E8F0E088E010
:101AF000808381E080936F0080818160808308957E
:101B00001F920F920FB60F9211240F931F932F93D2
:101B10003F934F935F936F937F938F939F93AF9375
:101B2000BF93EF93FF93CF93DF9300D000D0CDB757
:101B3000DEB75D9A40913B0150913C0160913D01BF
:101B400070913E018091370190913801A091390147
:101B5000B0913A01840F951FA61FB71F80933B01D8
:101B600090933C01A0933D01B0933E01E0913D0173
:101B7000F0913E019F0131708091310190E0FC01B4
:101B8000EE0FFF1FE75FFE4F0190F081E02DE20FA7
:101B9000F31FEE0FFF1FE053FE4FA591B491880F86
:101BA000991FFC01E55FFE4F0190F081E02DE20FEF
:101BB000F31FEE0FFF1FE053FE4F059114910A171C
:101BC0001B0708F0CBC0A01BB10B40913201242FA2
:101BD00030E00E94AE1269837A838B839C838A8172
:101BE0009B81080F191F10938900009388000091B2
:101BF0005401109155012091560130915701809167
:101C0000500190915101A0915201B0915301800F68
:101C1000911FA21FB31F8093540190935501A0936D
:101C20005601B0935701E0915601F0915701CF0151
:101C3000917020914A0130E0F901EE0FFF1FE75F3C
:101C4000FE4F0190F081E02DE80FF91FEE0FFF1F0E
:101C5000E053FE4FA591B491220F331FF901E55FC8
:101C6000FE4F0190F081E02DE80FF91FEE0FFF1FEE
:101C7000E053FE4F059114910A171B0708F044C06A
:101C8000A01BB10B242F30E00E94AE1269837A832F
:101C90008B839C838A819B81AC01990F660B770BA8
:101CA00049835A836B837C83080F0093B300809130
:101CB0004301811147C080914201882359F08091EE
:101CC0005B0180934A0180915A01809580934B017A
:101CD000109242015D980F900F900F900F90DF913E
:101CE000CF91FF91EF91BF91AF919F918F917F9194
:101CF0006F915F914F913F912F911F910F910F9095
:101D00000FBE0F901F901895C8018A1B9B0BDC011A
:101D1000242F30E00E94AE1269837A838B839C83E8
:101D20008A819B81AC01990F660B770B49835A839B
:101D30006B837C83081B0093B3008091430188234D
:101D400009F4B9CF80914801809331018091470116
:101D500080958093320110924301BCCFC8018A1B49
:101D60009B0BDC0140913201242F30E00E94AE1227
:101D700069837A838B839C838A819B81081B190BDF
:101D8000109389000093880032CF8CE18CBD81E0F4
:101D90008DBD10925C011092DD0110925E021092D6
:101DA0005F028CB580648CBD089508958EBD0DB41E
:101DB00007FEFDCF8EB50895CF92DF92EF92FF928E
:101DC0006B017C0160E079E08DE390E0A701960172
:101DD0000E948C12DA01C9010197A109B109B695D7
:101DE000A795979587959C018091C000826080930C
:101DF000C000211580E13807B8F060E874E88EE192
:101E000090E0A70196010E948C12DA01C9010197A6
:101E1000A109B109B695A795979587959C018091E1
:101E2000C0008D7F8093C0003093C5002093C40014
:101E3000109261021092600210926302109262028C
:101E40001092E9021092E802109265021092640268
:101E50001092E7021092E60210926B0310926A034E
:101E60005098519A8091C10080648093C100809104
:101E7000C10080688093C1008091C1008860809318
:101E8000C1008091C10080618093C1007894FF906F
:101E9000EF90DF90CF90089501C000008091640220
:101EA00090916502892BC9F78091C00085FFF5CF1D
:101EB000109261021092600210926302109262020C
:101EC0001092E9021092E8021092650210926402E8
:101ED0001092E7021092E60210926B0310926A03CE
:101EE0008091C1008F7B8093C1008091C1008F776A
:101EF0008093C1008091C100877F8093C100809151
:101F0000C1008F7E8093C10008959091C1009F7B96
:101F10009093C10020916402309165022038310510
:101F200000F5E0916A03F0916B03EA59FD4F80835D
:101F3000809164029091650201969093650280936E
:101F4000640280916A0390916B03019690936B03F6
:101F500080936A0380916A0390916B0380389105A6
:101F6000B0F58091C10080648093C1008091C00071
:101F700085FF2CC08091640290916502892B31F11C
:101F8000E091E602F091E702EA59FD4F80818093EB
:101F9000C60080916402909165020197909365025A
:101FA000809364028091E6029091E70201969093FB
:101FB000E7028093E6028091E6029091E702803882
:101FC000910520F01092E7021092E6020895109217
:101FD0006B0310926A03C5CF2091C1002F7B209321
:101FE000C1006115710509F444C02091640230916B
:101FF000650220383105E8F5FC0161507109680F70
:10200000791F08C0809164029091650231968038F2
:10201000910578F580916402909165028038910570
:1020200028F5A0916A03B0916B038081AA59BD4F36
:102030008C93809164029091650201969093650261
:102040008093640280916A0390916B030196909350
:102050006B0380936A0380916A0390916B038038CD
:10206000910520F010926B0310926A03E617F707B0
:1020700049F68091C10080648093C1008091C000C6
:1020800085FF2DC08091640290916502892B31F10A
:10209000E091E602F091E702EA59FD4F80818093DA
:1020A000C600809164029091650201979093650249
:1020B000809364028091E6029091E70201969093EA
:1020C000E7028093E6028091E6029091E702803871
:1020D000910520F01092E7021092E602089508950B
:1020E000CF92DF92EF92FF920F931F93CF93DF93E4
:1020F000CDB7DEB72A970FB6F894DEBF0FBECDBFBF
:102100008C01FE0131968AE0DF011D928A95E9F784
:1021100001151105D1F1C80117FDA0C029E03AE071
:10212000E32EF12C01C0232F6F01C20ED11CB70189
:102130000E947812805DD6018C93CB013FEF320F65
:10214000009789F717FF07C0DF01A30FB11D8DE2CC
:102150008C933EEF320F832F90E069E070E0681BB4
:10216000790B01968E0F9F1F0E94EC0F2A960FB6D7
:10217000F894DEBF0FBECDBFDF91CF911F910F91BD
:10218000FF90EF90DF90CF9008958091C1008F7BFA
:102190008093C1008091640290916502803891051E
:1021A00028F5E0916A03F0916B03EA59FD4F80E353
:1021B00080838091640290916502019690936502FC
:1021C0008093640280916A0390916B0301969093CF
:1021D0006B0380936A0380916A0390916B0380384C
:1021E000910520F010926B0310926A038091C10058
:1021F00080648093C1008091C00085FFB7CF80913B
:10220000640290916502892B09F4B0CFE091E60257
:10221000F091E702EA59FD4F80818093C6008091DA
:102220006402909165020197909365028093640225
:102230008091E6029091E70201969093E7028093E5
:10224000E6028091E6029091E7028038910508F459
:102250008DCF1092E7021092E60288CF8827992747
:10226000801B910B5BCFE1ECF0E080818F77808366
:102270002091600230916102908190689083C90141
:10228000992708958091C1008F778093C100809134
:10229000600290916102892B39F48FEF9091C10017
:1022A00090689093C1000895E0916202F0916302FA
:1022B000E651FD4F808120916002309161022150F2
:1022C00031093093610220936002209162023091C3
:1022D00063022F5F3F4F309363022093620220918D
:1022E00062023091630220383105C0F2109263021D
:1022F000109262029091C10090689093C10008957D
:102300002091C1002F772093C1006115710509F458
:1023100041C02091600230916102232BD9F1FC0170
:1023200061507109680F791F07C080916002909118
:1023300061023196892B71F1809160029091610266
:10234000892B29F1A0916202B0916302A651BD4F81
:102350008C918083809160029091610201979093AB
:102360006102809360028091620290916302019603
:102370009093630280936202809162029091630263
:102380008038910520F01092630210926202E617E5
:10239000F70759F68091C10080688093C1000895C5
:1023A0001092610210926002109263021092620217
:1023B0001092E9021092E8021092650210926402F3
:1023C0001092E7021092E60210926B0310926A03D9
:1023D00008951F920F920FB60F9211248F939F931F
:1023E000EF93FF9380916002909161028038910594
:1023F00030F5E091E802F091E9028091C600E651E3
:10240000FD4F8083809160029091610201969093CC
:102410006102809360028091E8029091E902019646
:102420009093E9028093E8028091E8029091E9029A
:102430008038910520F01092E9021092E802FF9195
:10244000EF919F918F910F900FBE0F901F90189555
:102450001F920F920FB60F9211248F939F93EF93B9
:10246000FF938091640290916502892B31F1E09194
:10247000E602F091E702EA59FD4F80818093C600A1
:102480008091640290916502019790936502809318
:1024900064028091E6029091E70201969093E70230
:1024A0008093E6028091E6029091E70280389105E0
:1024B00020F01092E7021092E602FF91EF919F91B7
:1024C0008F910F900FBE0F901F9018950E94990B3F
:1024D0000E94C50E60E072EC81E090E00E94DC0E8C
:1024E0000E94140D78940E94270C0E94760CFBCF5A
:1024F00097FB072E16F4009407D077FD09D00E94B1
:10250000BD1207FC05D03EF4909581959F4F08952C
:10251000709561957F4F0895A1E21A2EAA1BBB1BEF
:10252000FD010DC0AA1FBB1FEE1FFF1FA217B3079F
:10253000E407F50720F0A21BB30BE40BF50B661FB5
:10254000771F881F991F1A9469F760957095809579
:1025500090959B01AC01BD01CF010895A29FB001F0
:10256000B39FC001A39F700D811D1124911DB29FC7
:10257000700D811D1124911D0895AA1BBB1B51E1F3
:1025800007C0AA1FBB1FA617B70710F0A61BB70BE3
:10259000881F991F5A95A9F780959095BC01CD0188
:1025A0000895DC0101C06D9341505040E0F708955B
:0425B000F894FFCFCD
:1025B4002B00072800052800040000000200040086
:0425C4000800060005
:00000001FF
